:020000040000FA
:10000000900400206D0200007102000073020000E5
:100010007502000077020000790200000000000075
:100020000000000000000000000000007B02000053
:100030007D020000000000007F020000310E000081
:10004000830200008302000083020000830200009C
:10005000830200003D0F00008302000083020000C5
:10006000830200008302000083020000830200007C
:10007000830200008302000083020000830200006C
:10008000830200008302000083020000830200005C
:10009000830200008302000083020000830200004C
:1000A000830200008302000083020000830200003C
:1000B0008302000083020000890500008302000023
:1000C00083020000911100008302000083020000FF
:1000D000830200008302000083020000830200000C
:1000E00083020000830200008302000083020000FC
:1000F00083020000830200008302000083020000EC
:1001000083020000830200008302000083020000DB
:1001100083020000830200008302000083020000CB
:1001200083020000830200008302000083020000BB
:1001300083020000830200008302000083020000AB
:1001400000000000000000000000000000000000AF
:10015000830200008302000083020000830200008B
:10016000000000000000000000000000000000008F
:10017000000000000000000000000000000000007F
:10018000000000000000000000000000000000006F
:10019000000000000000000000000000000000005F
:1001A000000000000000000000000000000000004F
:1001B000830200008302000083020000830200002B
:1001C000830200008302000083020000830200001B
:1001D000830200008302000083020000830200000B
:1001E00083020000830200008302000083020000FB
:1001F00083020000830200008302000083020000EB
:10020000830200008302000083020000000000005F
:1002100083020000830200008302000083020000CA
:1002200083020000830200008302000083020000BA
:1002300083020000830200008302000083020000AA
:10024000830200008302000083020000830200009A
:10025000830200008302000083020000830200008A
:1002600083020000830200008302000000F00AB84D
:10027000FEE7FEE7FEE7FEE7FEE7FEE7FEE7FEE756
:10028000FEE7FEE700F002F800F042F814A696E858
:10029000000CB244B344DA4501D100F039F8BAE8B1
:1002A0000F000FA696E83000A5EB040504EB060747
:1002B000AAEB0704A7F101074FEA15154FEA34141A
:1002C000A4F10104AC4201D300F022F813F0010FB5
:1002D00018BFFB1A43F0010300F001F8DBE71847F1
:1002E000641500007415000070470000002300240E
:1002F00000250026103A28BF78C1FBD8520728BF36
:1003000030C148BF0B6070471FB51FBD10B510BD91
:1003100000F029F81146FFF7F7FF01F025F800F08B
:1003200047F803B4FFF7F2FF03BC00F04FF80000FA
:1003300072B6704762B67047EFF3108072B67047BE
:1003400080F31088704730BF704702480249014A65
:10035000024B704790000020900400209000002085
:10036000704770477047754600F02CF8AE460500A0
:100370006946534620F00700854618B020B5FFF7C0
:10038000E4FFBDE820404FF000064FF000074FF0BB
:1003900000084FF0000BAC46ACE8C009ACE8C0095F
:1003A000ACE8C009ACE8C00921F007018D467047F0
:1003B00010B50446AFF300802046BDE81040FFF7BB
:1003C000B0BF00000048704700000020014918201D
:1003D000ABBEFEE7260002007047000082B045F287
:1003E0003800C4F20200006800900E2800F26B8012
:1003F0000099DFE801F05C680868206844681468C8
:100400002C683868500040F27601C2F200010120E9
:10041000087041F60800C0F20000019056E040F27A
:100420007601C2F200010220087041F62800C0F2F5
:10043000000001904AE040F27601C2F20001032080
:10044000087041F61900C0F2000001903EE040F251
:100450007601C2F200010420087041F63B00C0F2B0
:100460000000019032E040F27601C2F20001052066
:10047000087041F62300C0F20000019026E040F22F
:100480007601C2F200010620087041F60C00C0F2AD
:10049000000001901AE040F27601C2F2000107204C
:1004A000087041F61300C0F2000001900EE040F227
:1004B0007601C2F200010020087041F61E00C0F271
:1004C0000000019002E000200190FFE7019802B0D7
:1004D0007047000080B541F2B560C0F2000000F046
:1004E00045FE00F023FE41F29350C0F2000000F000
:1004F0003DFE00F01BFE41F2EA70C0F2000000F089
:1005000035FE00F013FE41F22770C0F2000000F04B
:100510002DFE00F00BFE41F21850C0F2000000F07A
:1005200025FE00F003FE41F25970C0F2000000F019
:100530001DFE00F0FBFD41F2DB60C0F2000000F0A8
:1005400015FE00F0F3FD41F2C950C0F2000000F0CA
:100550000DFEFFE740F27500C2F200000078C00710
:1005600018B9FFE7FFF7EFFEF4E740F27501C2F2BA
:1005700000010020087040F27701C2F2000108700B
:1005800000F0D4FD80BD000080B582B00020019055
:10059000FFE7019843F67F01C0F20101884205D8C8
:1005A000FFE7FFE7019801300190F2E745F21440C0
:1005B000C4F202000068C00768B3FFE745F21C41BF
:1005C000C4F202010120086040F27600C2F200008D
:1005D0000078072807D1FFE740F27601C2F2000158
:1005E0000020087007E040F27601C2F200010878AE
:1005F00001300870FFE740F27600C2F20000017897
:1006000041F2E830C0F20000405C45F23801C4F22B
:1006100002010860FFE745F21440C4F202000068DE
:10062000C00600283CD5FFE740F27400C2F200008B
:100630000078022834D1FFE745F21C41C4F20201E0
:100640001020086045F23800C4F202000068C0B211
:1006500000F05CFE00F06AFD41F2FF60C0F20000B5
:1006600000F084FD00F062FD41F22B40C0F200007A
:1006700000F07CFDFFF7B2FE014640F27000C2F2CE
:1006800000000160006800F071FD00F04FFD41F2D4
:100690000840C0F2000000F069FD00F047FDFFE7F0
:1006A00045F21440C4F202000068C006002815D5C7
:1006B000FFE740F27400C2F20000007803280DD179
:1006C000FFE745F21C41C4F202011020086040F22D
:1006D0006001C2F2000101200870FFE702B080BD96
:1006E0004EF20811C4F20F01086840F020000860C3
:1006F000FFE74EF20811C4F20F01086800F0200075
:10070000086008B9FFE7F4E745F22051C4F202019E
:1007100044F24B30C4F64F40086045F22451C4F215
:100720000201086840F01F00086045F20041C4F271
:100730000201086840F00E000860086820F011000F
:10074000086045F22041C4F20201086820F01F0051
:10075000086045F21C51C4F20201086840F01F0015
:10076000086045F22C51C4F2020108686FF31300CF
:10077000086045F22851C4F20201086820F01F0009
:10078000086045F21051C4F20201086840F01100FF
:10079000086045F20441C4F20201086820F011002B
:1007A000086045F20841C4F20201086820F0110017
:1007B000086045F20C41C4F20201086840F01100E3
:1007C000086045F21C41C4F202011120086045F2A4
:1007D0001041C4F20201086840F0110008604EF2B6
:1007E0001C41CEF200010868042262F357500860F1
:1007F0004EF20011CEF20001086840F0804008601F
:1008000040F26400C2F2000044F2506101600168ED
:1008100044F62060401A40F26801C2F2000108600C
:100820007047000080B582B040F27401C2F200014E
:100830000120087000F07EF9FFE740F27500C2F277
:1008400000000078C00718B9FFE7FFF77CFDF4E768
:1008500040F27501C2F200010020087040F27701F9
:10086000C2F20001087040F27800C2F20000007885
:1008700001460191312808D0FFE70198322807D0BE
:10088000FFE70198332806D008E000F013F80EE0E7
:1008900000F0BAF80BE000F047F908E041F27D7093
:1008A000C0F2000000F062FCFFF7BCFFFFE702B0FF
:1008B00080BD000080B582B000F038FC40F27501C8
:1008C000C2F200010020087040F27701C2F200017C
:1008D000087000F02BFC41F28560C0F2000000F0CF
:1008E00045FC00F023FC41F2DF50C0F2000000F0B4
:1008F0003DFCFFE740F27500C2F200000078C0073F
:1009000018B9FFE7FFF71FFDF4E740F27501C2F2E7
:1009100000010020087040F27701C2F20001087067
:1009200000F004FC40F27800C2F200000078623867
:1009300001460191172846D80199DFE801F01A28ED
:100940003D44441344444444444444442F440C44EC
:1009500044444436442145F23801C4F202010220E5
:10096000086039E045F23801C4F20201082008604D
:1009700032E045F23801C4F20201042008602BE0A5
:1009800045F23801C4F202010A20086024E045F271
:100990003801C4F202010C2008601DE045F2380164
:1009A000C4F202010620086016E045F23801C4F2E4
:1009B00002010E2008600FE045F23801C4F2020186
:1009C0000020086008E041F27D70C0F2000000F0F5
:1009D000CDFBFFF76FFF15E000F0A8FBFFF7FEFC73
:1009E000014640F27000C2F200000160006800F0B1
:1009F000BDFB41F26350C0F2000000F0B7FBFFF70F
:100A000011FFFFE702B080BD80B500F08FFB41F21F
:100A10004260C0F2000000F0A9FBFFE740F2750061
:100A2000C2F200000078C00718B9FFE7FFF78BFC9F
:100A3000F4E740F27501C2F200010020087040F2B4
:100A40007701C2F20001087040F27800C2F20000A3
:100A500000F0B4F9014640F26C00C2F200000160FF
:100A6000006864280ED1FFE740F26801C2F200017D
:100A700044F61F60086040F26401C2F200010020E9
:100A8000086031E040F26C00C2F20000006870B90A
:100A9000FFE740F26401C2F2000144F61F60086003
:100AA00040F26801C2F20001002008601BE040F241
:100AB0006C00C2F20000016844F62060414348F235
:100AC0001F52C5F2EB12A1FB02214A0940F2640158
:100AD000C2F200010A600968401A40F26801C2F2DD
:100AE00000010860FFE7FFE700F020FB00F01EFBBD
:100AF00040F27000C2F20000006800F037FB41F2E3
:100B0000C770C0F2000000F031FB40F27800C2F282
:100B1000000000F02BFB41F62E00C0F2000000F0B8
:100B200025FBFFF77FFE80BD80B500F0FFFA00F0E7
:100B3000FDFA80BD80B500F0F9FA41F2DD70C0F237
:100B4000000000F013FB00F0F1FA41F27050C0F227
:100B5000000000F00BFB00F0E9FA41F2C740C0F2E0
:100B6000000000F003FB00F0E1FA41F28950C0F20E
:100B7000000000F0FBFA00F0D9FA41F29A50C0F2FE
:100B8000000000F0F3FA80BD80B5322000F0BEFB1B
:100B900040F27401C2F200010220087000F028F84F
:100BA000FFF71CFC014640F27000C2F20000016039
:100BB000006800F0DBFA00F0B9FAFFE740F27500D8
:100BC000C2F200000078C00718B9FFE7FFF7BBFBCF
:100BD000F4E740F27501C2F200010020087040F213
:100BE0007701C2F20001087000F0A0FA80BD000099
:100BF00080B500F09BFA41F2FF60C0F2000000F007
:100C0000B5FA00F093FA41F2F030C0F2000000F0C3
:100C1000ADFA00F08BFA41F26A40C0F2000000F039
:100C2000A5FA00F083FA41F29940C0F2000000F00A
:100C30009DFA00F07BFA41F2F440C0F2000000F0AF
:100C400095FA00F073FA41F23C40C0F2000000F067
:100C50008DFA00F06BFA41F2F570C0F2000000F07E
:100C600085FA00F063FA41F22B40C0F2000000F078
:100C70007DFA80BD80B5332000F048FB40F274015E
:100C8000C2F200010320087000F050FA41F24170F6
:100C9000C0F2000000F06AFA00F048FA41F2355064
:100CA000C0F2000000F062FA00F040FA41F29E70DB
:100CB000C0F2000000F05AFA00F038FA41F2266063
:100CC000C0F2000000F052FA00F030FAFFE740F204
:100CD0006000C2F200000078C007D8B9FFE740F218
:100CE0007500C2F200000078C00718B9FFE7FFF7EF
:100CF0002AFB0EE040F27501C2F2000100200870EC
:100D000000F014FA40F27800C2F2000000F016FB86
:100D1000FFE7DCE740F26000C2F200000078C007A5
:100D200038B1FFE740F26001C2F200010020087014
:100D3000FFE700F0FBF980BD81B04EF27001C4F214
:100D40000F010091086840F000400860086840F416
:100D5000006008604EF26002C4F20F02106820F4D6
:100D6000F8601060106800F5A8601060086820F056
:100D70007000086008680860086820F40050086087
:100D8000086840F0804008600868072262F39C50C1
:100D90000860FFE74EF25000C4F20F000068400602
:100DA000002801D4FFE7F5E74EF27001C4F20F010D
:100DB000086820F40060086001B0704784B00290B9
:100DC000002001908DF8020002989DF80210405C0E
:100DD0008DF80300FFE79DF8030010B3FFE79DF8CF
:100DE000030030280FDBFFE79DF8030039280ADCF9
:100DF000FFE7019800EB80019DF8030000EB410044
:100E00003038019002E0019803900DE002989DF8BF
:100E1000021001318DF80210C9B2405C8DF8030058
:100E2000D9E701980390FFE7039804B070470000EA
:100E30004EF21001CEF20001086820F001000860B7
:100E400045F23800C4F20200006840F27601C2F2B6
:100E500000010A7841F2E831C0F20001895C0842E1
:100E60001DD0FFE740F26800C2F2000000680138C0
:100E70004EF21401CEF20001086040F27600C2F298
:100E80000000017841F2E830C0F20000425C45F217
:100E90003801C4F202010868904308601CE040F287
:100EA0006400C2F20000006801384EF21401CEF274
:100EB0000001086040F27600C2F20000017841F2C1
:100EC000E830C0F20000425C45F23801C4F2020191
:100ED000086810430860FFE74EF21801CEF20001E7
:100EE000002008604EF21001CEF20001086840F0C8
:100EF00001000860704700004EF21001CEF20001C0
:100F0000002008604EF21403CEF2000343F67F0285
:100F1000C0F201021A604EF21802CEF20002106016
:100F20004EF62052CEF200021068022363F35F7087
:100F30001060086840F007000860704780B582B014
:100F40004CF23C00C4F200000068C00600285CD5EA
:100F5000FFE74CF21800C4F200000068C006002849
:100F60004CD4FFE74CF20000C4F2000000688DF89A
:100F700007009DF807000D2812D1FFE740F2750128
:100F8000C2F200010120087040F27700C2F20000B6
:100F9000027840F27801C2F20001002088542CE06F
:100FA00040F27700C2F200000078122824DCFFE74C
:100FB0009DF8070008280BD1FFE7082000F0BEF8D5
:100FC00040F27701C2F2000108780138087012E09F
:100FD0009DF8070040F27703C2F200031A78511C13
:100FE000197040F27801C2F2000188549DF80700A0
:100FF00000F0A4F8FFE7FFE7FFE7FFE74CF244014A
:10100000C4F2000110200860FFE702B080BD0000BC
:1010100081B08DF803008DF802104EF20411C4F275
:101020000F01086840F0010008604EF20811C4F298
:101030000F01086840F0010008604CF23001C4F272
:101040000001002008604CF22401C4F200013620A7
:1010500008604CF22801C4F20001102008604CF234
:101060002C01C4F20001602008609DF803009DF887
:1010700002100843C00760B3FFE74EF20441CEF20E
:1010800000010868052262F34F3008604EF200113B
:10109000CEF20001202008609DF80300C00748B18F
:1010A000FFE74CF23801C4F20001086840F010007C
:1010B0000860FFE79DF80200C00748B1FFE74CF267
:1010C0003801C4F20001086840F020000860FFE722
:1010D000FFE74CF23001C4F20001086840F201322F
:1010E0001043086044F22041C4F20001086840F057
:1010F0000300086044F21C51C4F20001086840F08B
:101100000300086044F22C51C4F200010868112267
:1011100062F30700086044F22851C4F20001086835
:1011200020F00300086001B07047000080B50D207A
:1011300000F004F80A2000F001F880BD81B08DF8BD
:101140000300FFE74CF21800C4F2000000688006BC
:10115000002801D5FFE7F5E79DF803004CF20001F8
:10116000C4F20001086001B07047000080B582B091
:101170000190FFE70198007840B1FFE701980078FF
:10118000FFF7DCFF019801300190F3E702B080BD6A
:101190004EF23C00C4F200000068C00600281BD5D7
:1011A000FFE74EF21800C4F200000068C0060028F5
:1011B0000BD4FFE74EF20000C4F20000006845F2D5
:1011C0003801C4F202010860FFE74EF24401C4F2A4
:1011D000000110200860FFE77047000081B08DF823
:1011E00003008DF802104EF21861C4F20F01086876
:1011F00040F0040008604EF20811C4F20F010868C4
:1012000040F0080008604EF23001C4F200010020F6
:1012100008604EF22401C4F20001512008604EF231
:101220002801C4F20001182008604EF22C01C4F21B
:101230000001602008609DF80300C00728B9FFE79F
:101240009DF80200C00760B3FFE74EF22041CEF2E6
:1012500000010868082262F30F3008604EF20411A2
:10126000CEF20001022008609DF80300C00748B1DB
:10127000FFE74EF23801C4F20001086840F01000A8
:101280000860FFE79DF80200C00748B1FFE74EF293
:101290003801C4F20001086840F020000860FFE750
:1012A000FFE74EF23001C4F20001086840F201325B
:1012B0001043086047F22051C4F2000144F24B3061
:1012C000C4F64F40086047F22041C4F200010868AC
:1012D00040F0C000086047F21C51C4F200010868E9
:1012E00040F0C000086047F22C51C4F200010868C9
:1012F000112262F31F60086047F22851C4F2000116
:10130000086820F0C000086001B0704781B08DF817
:101310000300FFE74EF21800C4F2000000688006E8
:10132000002801D5FFE7F5E79DF803004EF2000124
:10133000C4F20001086001B07047000080B582B0BF
:101340000190FFE70198007840B1FFE7019800782D
:10135000FFF7DCFF019801300190F3E70020FFF771
:10136000D5FF02B080BD000080B584B0002002909F
:101370000390FEF7DDFFFFF7DFFC029901200190EB
:10138000FFF746FE01980299FFF728FFFFF7A8F93B
:10139000FFF7B2FDFEF7CEFF029845F23801C4F226
:1013A00002010860FFE7FFF795F840F27800C2F20B
:1013B0000000007801460091312808D0FFE700982E
:1013C000322807D0FFE70098332806D008E0FFF75F
:1013D00029FA06E0FFF7D8FB03E0FFF74BFC00E03B
:1013E000FFE7FFF7A3FEDEE7000208040A0C060E83
:1013F000496E20636F6C6F7220576865656C20536F
:10140000746174652E20200057616974696E6720CD
:10141000666F7220636F6C6F7220636F6465206605
:10142000726F6D204D4355322020004375727265F6
:101430006E7420636F6C6F723A2020004F6E63658C
:10144000206120636F6C6F722069732073656C6517
:10145000637465642C207072657373207377312018
:10146000746F2073656E64202000506C6561736535
:101470002070726573732073773220746F20676FEA
:10148000207468726F7567682074686520636F6C7C
:101490006F727320696E20200074686520666F6C1F
:1014A0006C6F77696E6720636F6C6F722077686509
:1014B000656C3A204461726B2C205265642C204785
:1014C0007265656E2C2000322E204368616E676560
:1014D00020746865206272696768746E6573732032
:1014E0006F662063757272656E74204C4544287374
:1014F000292E2000426C75652C2059656C6C6F7725
:101500002C204372616E2C20507572706C652C20FB
:1015100057686974652E2000322E204D4355313CAA
:101520002D3E4D43553220436F6C6F7220576865D6
:10153000656C2E20005072657373207377312061C3
:101540007420616E792074696D6520746F206578F0
:10155000697420746865206368617420726F6F6DB0
:101560002E2000204C4544206973206F6E2E2000F1
:10157000312E2043686F6F736520616E204C4544A7
:1015800020636F6C6F722E2000332E2045786974B3
:101590002E20004D435520312000506C656173654D
:1015A0002073656C65637420616E206F7074696F61
:1015B0006E2066726F6D2074686520666F6C6C6F4C
:1015C00077696E67206C69737428656E7465722024
:1015D00031206F722032206F722033293A2000644C
:1015E000286461726B292C7228726564292C672823
:1015F000677265656E292C6228626C7565292C7985
:101600002879656C6C6F77292C63286372616E2969
:101610002C7028707572706C65292C772877686932
:101620007465293A2000286C657373207468616EB4
:101630002032302063686172616374657273293A85
:101640002000506C6561736520656E746572206161
:1016500020646563696D616C206E756D62657220D2
:1016600066726F6D203020746F2031303020666FCD
:101670006C6C6F7765642062792061207265747587
:10168000726E3A2000506C656173652073656C65FD
:101690006374206120636F6C6F722066726F6D20BF
:1016A00074686520666F6C6C6F77696E67206C6913
:1016B00073743A200057656C636F6D6520746F20FA
:1016C00043454353203434372050726F6A65637446
:1016D0002032202D20554152542000506C656173FA
:1016E000652063686F6F7365206120636F6D6D7532
:1016F0006E69636174696F6E206D6F646520004D63
:101700006F64652032204D4355313A207072657305
:1017100073205E20746F2065786974207468697323
:10172000206D6F64652000312E2050433C2D3E4DCE
:10173000435531204C454420436F6E74726F6C20CA
:10174000004D6F64652033204D4355313A20436886
:10175000617420526F6F6D2000332E2050433C2D5A
:101760003E4D4355313C2D3E4D4355323C2D3E5070
:1017700043204368617420526F6F6D2000496E767C
:10178000616C696420496E7075742E20506C6561BF
:1017900073652074727920616761696E2000506CF6
:1017A0006561736520747970652061206D65737360
:1017B00061676520656E64207769746820612072B6
:1017C000657475726E2000204C4544206973206456
:1017D0006973706C6179656420617420004D6F6479
:1017E000652031204D656E7520004D61696E204D7C
:1017F000656E75200074686520636F6C6F7220746D
:101800006F204D4355322E00526564005075727042
:101810006C6500576869746500426C7565004461C9
:10182000726B004372616E00477265656E00252021
:101830006272696768746E6573730059656C6C6F6A
:101840007700000054180000000000209004000001
:04185000EC020000A6
:040000050000026D88
:00000001FF
